:020000040800F2
:1000000000800120A10B0008C5090008CB090008E9
:10001000D1090008D7090008DD0900080000000028
:10002000000000000000000000000000E3090008DC
:10003000F109000800000000FF0900080D0A00088F
:1000400000000000F50B0008F50B0008F50B000898
:10005000F50B0008F50B0008F50B0008190A00085D
:10006000F50B0008F50B0008F50B0008F50B000870
:10007000F50B0008F50B0008F50B0008F50B000860
:10008000F50B0008F50B0008F50B00080000000058
:10009000000000000000000000000000F50B000858
:1000A000F50B0008F50B0008F50B0008F50B000830
:1000B000F50B0008F50B0008F50B0008F50B000820
:1000C000F50B0008F50B0008F50B0008F50B000810
:1000D000F50B0008F50B0008F50B00080000000008
:1000E000F50B0008F50B0008F50B000800000000F8
:1000F000000000000000000000000000F50B0008F8
:1001000000000000F50B0008F50B0008F50B0008D7
:1001100000000000000000000000000000000000DF
:10012000270A0008F50B0008F50B0008F50B00087E
:10013000F50B0008000000000000000000000000B7
:10014000000000000000000000000000F50B0008A7
:10015000F50B0008F50B0008F50B0008F50B00087F
:10016000F50B0008F50B000800000000000000007F
:10017000000000000000000000000000000000007F
:10018000000000000000000000000000000000006F
:04019000F50B000863
:1001940010B5054C237833B9044B13B10448AFF3BD
:1001A40000800123237010BD040000200000000023
:1001B400400C000808B5034B1BB103490348AFF3D7
:1001C400008008BD0000000008000020400C00086A
:1001D40080B400AF084B1B6803F02003202B05D12B
:1001E400054B3D229A60054B01221A7000BFBD46A3
:1001F4005DF8047B704700BF0064024020000020CB
:1002040080B400AF1A4B1B6B194A43F00803136305
:10021400184B1B68174A23F00F031360154B1B6818
:10022400144A43F005031360124B5B68114A23F030
:10023400030353600F4B9B680E4A43F00A03936019
:100244000B4B5B6C0A4A43F4804353640A4B1B6AAE
:10025400094A43F001031362064BDB68054A23F0A5
:100264000F03D36000BFBD465DF8047B704700BF39
:1002740000380240000C02400038014080B483B0D2
:1002840000AF0346FB71FB79002B02D0012B04D095
:1002940007E0074B01229A6103E0054B02229A61B1
:1002A40000BF00BF0C37BD465DF8047B704700BF3C
:1002B400000C024080B483B000AF0346FB71FB79AD
:1002C400002B02D0012B05D009E0084B4FF48032FB
:1002D4009A6104E0054B4FF400329A6100BF00BFFD
:1002E4000C37BD465DF8047B704700BF000C02402C
:1002F40080B400AF0E4B1B6B0D4A43F01003136325
:100304000C4B1B680B4A23F0FF031360094BDB689B
:10031400084A23F0FF03D360064BDB68054A43F029
:10032400AA03D36000BFBD465DF8047B704700BFDD
:10033400003802400010024080B400AF1A4B1B6B1F
:10034400194A43F010031363184B1B68174A23F42C
:100354007F431360154B1B68144A43F4AA4313608C
:10036400124B5B68114A23F0F00353600F4B9B68F8
:100374000E4A43F42A4393600B4B5B6C0A4A43F4E2
:10038400804353640A4B1B6A094A43F00103136216
:10039400064BDB68054A23F47F43D36000BFBD46A8
:1003A4005DF8047B704700BF003802400010024033
:1003B4000038014080B483B000AF0346FB71FB7981
:1003C400042B22D801A252F823F000BFE503000851
:1003D400EF030008F7030008FF0300080704000800
:1003E4000D4B4FF470029A6110E00B4B0B4A9A616B
:1003F4000CE0094B0A4A9A6108E0074B094A9A61E2
:1004040004E0054B084A9A6100E000BF00BF0C37C6
:10041400BD465DF8047B7047001002401000E00008
:100424002000D0004000B0008000700080B483B091
:1004340000AF0346FB71FB79042B2DD801A252F8BF
:1004440023F000BF9D0400085D0400086D0400084B
:100454007D0400088D040008174B1B6903F0010399
:10046400012B1BD1012321E0134B1B6903F0020371
:10047400022B15D1012319E00F4B1B6903F0040370
:10048400042B0FD1012311E00B4B1B6903F008036C
:10049400082B09D1012309E000BF06E000BF04E0F6
:1004A40000BF02E000BF00E000BF002318460C3785
:1004B400BD465DF8047B70470010024080B500AF74
:1004C4000020FFF777FF0A2000F028FA0120FFF749
:1004D40071FF0A2000F022FA0120FFF7A7FF03466C
:1004E400012B05D10020FFF7E5FE0120FFF7E2FE16
:1004F4000220FFF79BFF0346012B03D164216420F4
:1005040000F084F90320FFF791FF0346012B03D188
:100514001921642000F07AF90420FFF787FF0A20EC
:1005240000F0FCF90220FFF745FF0A2000F0F6F97D
:100534000120FFF77BFF0220FFF778FF0346012B22
:1005440005D10020FFF79AFE0120FFF7B3FE032038
:10055400FFF76CFF0346012B03D13221642000F026
:1005640055F90420FFF762FF0A2000F0D7F90320B1
:10057400FFF720FF0A2000F0D1F90120FFF756FF12
:100584000220FFF753FF0346012B05D10120FFF79B
:1005940075FE0020FFF78EFE0320FFF747FF03469A
:1005A400012B03D14B21642000F030F90420FFF724
:1005B4003DFF0A2000F0B2F90420FFF7FBFE0A20F9
:1005C40000F0ACF90120FFF731FF0220FFF72EFF06
:1005D4000320FFF72BFF0420FFF728FF0A2000F079
:1005E4009DF900BF80BD000080B485B000AF786085
:1005F4007B6803F00703FB600C4BDB68BB60BA68E5
:100604004FF6FF031340BB60FB681A02BB68134339
:1006140043F0BF6343F40033BB60044ABB68D36058
:1006240000BF1437BD465DF8047B704700ED00E061
:1006340080B483B000AF0346FB7197F90730002BF9
:100644000BDBFB7903F01F02074997F907305B09BD
:10065400012000FA02F241F8232000BF0C37BD4606
:100664005DF8047B704700BF00E100E080B483B014
:1006740000AF03463960FB7197F90730002B0ADBA2
:100684003B68DAB20C4997F907301201D2B20B4435
:1006940083F800230AE03B68DAB20849FB7903F0E7
:1006A4000F03043B1201D2B20B441A7600BF0C377D
:1006B400BD465DF8047B704700E100E000ED00E01A
:1006C40080B500AF0320FFF78FFF00214FF0FF300C
:1006D400FFF7CCFF01210720FFF7C8FF02213820D4
:1006E400FFF7C4FF0720FFF7A3FF3820FFF7A0FFA1
:1006F40000BF80BD80B400AF414B1B6B404A43F048
:10070400010313633F4B1B683E4A23F440331360D9
:100714003C4B1B683B4A43F400331360394B5B6822
:10072400384A23F480735360364BDB68354A23F42C
:100734004033D360334B5B6A324A23F00F03536276
:10074400304B5B6A2F4A43F0010353622C4B5B6CC2
:100754002B4A43F0010353642B4B1B682A4A43F092
:1007640080031360284B1B68274A23F0700313602F
:10077400254B9B68244A23F007039360224B40F2E5
:100784008F629A62204B4FF6FF72DA621E4B47F675
:10079400FF725A631C4B9B691B4A23F0030393614A
:1007A400194B9B69184A43F008039361164B9B69E4
:1007B400154A43F060039361134B1B6A124A43F0DA
:1007C40002031362104B5B690F4A43F00103536148
:1007D4000D4B1B6A0C4A43F0010313620A4B5B6C1A
:1007E400094A43F400435364074B1B68064A43F029
:1007F4000103136000BFBD465DF8047B704700BF72
:1008040000380240000002400000014080B485B07E
:1008140000AF03460A46FB801346BB80FB88002BCF
:1008240015D0FB880D4A92FBF3F3FB810C4AFB893C
:10083400D362BB88FA8902FB03F30A4A82FB0312E0
:100844005211DB17D31ABB81054ABB89536300BF1E
:100854001437BD465DF8047B704700BFA0860100D5
:10086400000001401F85EB5180B483B000AF034604
:100874003960FB7197F90730002B0ADB3B68DAB269
:100884000C4997F907301201D2B20B4483F80023C4
:100894000AE03B68DAB20849FB7903F00F03043B32
:1008A4001201D2B20B441A7600BF0C37BD465DF874
:1008B400047B704700E100E000ED00E080B582B009
:1008C40000AF78607B68013BB3F1807F01D30123E3
:1008D4000FE00A4A7B68013B53600F214FF0FF3061
:1008E400FFF7C2FF054B00229A60044B07221A60EF
:1008F400002318460837BD4680BD00BF10E000E065
:1009040080B400AF044B1B680133034A136000BF7B
:10091400BD465DF8047B70472400002080B485B098
:1009240000AF7860084B1B68FB6000BF064B1A6879
:10093400FB68D31A7A689A42F8D800BF00BF14370C
:10094400BD465DF8047B70472400002080B582B06A
:1009540000AF00F0A3F80C4B1B680C4A934200D084
:10096400FEE7094B1B680A4AA2FB03239B091846AE
:10097400FFF7A4FF78607B68002B00D0FEE700BF80
:100984000837BD4680BD00BF000000200024F400ED
:10099400D34D621080B500AFFFF7D8FFFFF790FE8C
:1009A400FFF72EFCFFF7A6FEFFF7C6FCFFF7A0FC3F
:1009B40062B600BFFFF782FD0A20FFF7AFFFF9E739
:1009C40080B400AFFEE780B400AFFEE780B400AFB0
:1009D400FEE780B400AFFEE780B400AFFEE780B46A
:1009E40000AF00BFBD465DF8047B704780B400AF24
:1009F40000BFBD465DF8047B704780B400AF00BF04
:100A0400BD465DF8047B704780B500AFFFF778FF03
:100A140000BF80BD80B400AF00BFBD465DF8047B5D
:100A2400704780B500AFFFF7D3FB00BF80BD000067
:100A340080B400AF164BD3F88830154A43F47003E2
:100A4400C2F88830134B1B68124A43F00103136049
:100A5400104B00229A600F4B1B680E4A23F08473DC
:100A640023F4803313600B4B0B4A5A60094B1B6809
:100A7400084A23F480231360064B0022DA60044BF7
:100A84004FF000629A6000BFBD465DF8047B70477A
:100A940000ED00E0003802401030002480B487B03C
:100AA40000AF00233B6100237B610223FB60002332
:100AB400BB6002237B60344B9B6803F00C033B61F7
:100AC4003B69082B11D03B69082B44D83B69002BA8
:100AD40003D03B69042B04D03DE02C4B2C4A1A6014
:100AE4003DE02A4B2B4A1A6039E0274B5B689B0D8B
:100AF40003F00103BB60244B5B6803F03F037B609E
:100B0400BB68002B0CD0234A7B68B2FBF3F31E4A6C
:100B140052689209C2F3080202FB03F37B610BE003
:100B24001B4A7B68B2FBF3F3174A52689209C2F37B
:100B3400080202FB03F37B61134B5B681B0C03F09D
:100B4400030301335B00FB607A69FB68B2FBF3F3D8
:100B54000E4A136003E00D4B0D4A1A6000BF0A4BA6
:100B64009B681B0903F00F030B4AD35C3B61074BE3
:100B74001A683B6922FA03F3044A136000BF1C3766
:100B8400BD465DF8047B7047003802400000002039
:100B94000024F40040787D01580C00080E48854676
:100BA40072B6FFF745FF0D480D490E4A002302E0D7
:100BB400D458C4500433C4188C42F9D30A4A0B4C99
:100BC400002301E013600432A242FBD300F012F8C8
:100BD400FFF7E0FEFEE70000008001200000002097
:100BE40004000020700C00080400002028000020ED
:100BF400FEE7000070B50D4D0D4C641BA4100026DB
:100C0400A64209D10B4D0C4C00F018F8641BA4103B
:100C14000026A64205D170BD55F8043B984701361D
:100C2400EEE755F8043B98470136F2E7680C0008F4
:100C3400680C0008680C00086C0C0008F8B500BFCC
:100C4400F8BC08BC9E467047F8B500BFF8BC08BCA9
:040C54009E46704701
:100C58000000000000000000010203040607080964
:040C6800B9010008C6
:040C6C0095010008E6
:040C70000024F40068
:0400000508000BA143
:00000001FF
